{
  "contractName": "Bank",
  "abi": [
    {
      "inputs": [
        {
          "internalType": "contract Token",
          "name": "_token",
          "type": "address"
        }
      ],
      "stateMutability": "nonpayable",
      "type": "constructor"
    },
    {
      "anonymous": false,
      "inputs": [
        {
          "indexed": true,
          "internalType": "address",
          "name": "from",
          "type": "address"
        },
        {
          "indexed": true,
          "internalType": "address",
          "name": "to",
          "type": "address"
        }
      ],
      "name": "MinterHasChange",
      "type": "event"
    },
    {
      "anonymous": false,
      "inputs": [
        {
          "indexed": true,
          "internalType": "address",
          "name": "account",
          "type": "address"
        },
        {
          "indexed": true,
          "internalType": "address",
          "name": "token",
          "type": "address"
        },
        {
          "indexed": false,
          "internalType": "uint256",
          "name": "amount",
          "type": "uint256"
        },
        {
          "indexed": false,
          "internalType": "uint256",
          "name": "rate",
          "type": "uint256"
        }
      ],
      "name": "TokenPurchased",
      "type": "event"
    },
    {
      "anonymous": false,
      "inputs": [
        {
          "indexed": true,
          "internalType": "address",
          "name": "owner",
          "type": "address"
        },
        {
          "indexed": true,
          "internalType": "address",
          "name": "to",
          "type": "address"
        },
        {
          "indexed": false,
          "internalType": "uint256",
          "name": "amount",
          "type": "uint256"
        }
      ],
      "name": "Withdraw",
      "type": "event"
    },
    {
      "inputs": [
        {
          "internalType": "address",
          "name": "",
          "type": "address"
        }
      ],
      "name": "balances",
      "outputs": [
        {
          "internalType": "uint256",
          "name": "",
          "type": "uint256"
        }
      ],
      "stateMutability": "view",
      "type": "function"
    },
    {
      "inputs": [],
      "name": "minter",
      "outputs": [
        {
          "internalType": "address",
          "name": "",
          "type": "address"
        }
      ],
      "stateMutability": "view",
      "type": "function"
    },
    {
      "inputs": [],
      "name": "rate",
      "outputs": [
        {
          "internalType": "uint256",
          "name": "",
          "type": "uint256"
        }
      ],
      "stateMutability": "view",
      "type": "function"
    },
    {
      "inputs": [],
      "name": "token",
      "outputs": [
        {
          "internalType": "contract Token",
          "name": "",
          "type": "address"
        }
      ],
      "stateMutability": "view",
      "type": "function"
    },
    {
      "inputs": [
        {
          "internalType": "uint256",
          "name": "_rate",
          "type": "uint256"
        }
      ],
      "name": "setRate",
      "outputs": [],
      "stateMutability": "nonpayable",
      "type": "function"
    },
    {
      "inputs": [
        {
          "internalType": "address",
          "name": "_minter",
          "type": "address"
        }
      ],
      "name": "changeMinterAddress",
      "outputs": [],
      "stateMutability": "nonpayable",
      "type": "function"
    },
    {
      "inputs": [
        {
          "internalType": "address",
          "name": "_to",
          "type": "address"
        },
        {
          "internalType": "uint256",
          "name": "amount",
          "type": "uint256"
        }
      ],
      "name": "withdraw",
      "outputs": [],
      "stateMutability": "nonpayable",
      "type": "function"
    },
    {
      "inputs": [],
      "name": "buyTokens",
      "outputs": [],
      "stateMutability": "payable",
      "type": "function"
    },
    {
      "inputs": [
        {
          "internalType": "address",
          "name": "_address",
          "type": "address"
        }
      ],
      "name": "balanceOfTokens",
      "outputs": [
        {
          "internalType": "uint256",
          "name": "",
          "type": "uint256"
        }
      ],
      "stateMutability": "view",
      "type": "function"
    },
    {
      "inputs": [],
      "name": "getName",
      "outputs": [
        {
          "internalType": "string",
          "name": "",
          "type": "string"
        }
      ],
      "stateMutability": "view",
      "type": "function"
    },
    {
      "inputs": [],
      "name": "getSymbol",
      "outputs": [
        {
          "internalType": "string",
          "name": "",
          "type": "string"
        }
      ],
      "stateMutability": "view",
      "type": "function"
    }
  ],
  "bytecode": "0x60806040523480156200001157600080fd5b5060405162001237380380620012378339818101604052810190620000379190620000de565b80600360006101000a81548173ffffffffffffffffffffffffffffffffffffffff021916908373ffffffffffffffffffffffffffffffffffffffff160217905550336000806101000a81548173ffffffffffffffffffffffffffffffffffffffff021916908373ffffffffffffffffffffffffffffffffffffffff16021790555060646002819055505062000177565b600081519050620000d8816200015d565b92915050565b600060208284031215620000f757620000f662000158565b5b60006200010784828501620000c7565b91505092915050565b60006200011d8262000138565b9050919050565b6000620001318262000110565b9050919050565b600073ffffffffffffffffffffffffffffffffffffffff82169050919050565b600080fd5b620001688162000124565b81146200017457600080fd5b50565b6110b080620001876000396000f3fe60806040526004361061009c5760003560e01c80632c8615b1116100645780632c8615b11461018a5780632ff57da8146101b357806334fcf437146101f0578063d0febe4c14610219578063f3fef3a314610223578063fc0c546a1461024c5761009c565b806307546172146100a157806315070401146100cc57806317d7de7c146100f757806327e235e3146101225780632c4e722e1461015f575b600080fd5b3480156100ad57600080fd5b506100b6610277565b6040516100c39190610ce9565b60405180910390f35b3480156100d857600080fd5b506100e161029b565b6040516100ee9190610d48565b60405180910390f35b34801561010357600080fd5b5061010c610347565b6040516101199190610d48565b60405180910390f35b34801561012e57600080fd5b5061014960048036038101906101449190610b46565b6103f3565b6040516101569190610d6a565b60405180910390f35b34801561016b57600080fd5b5061017461040b565b6040516101819190610d6a565b60405180910390f35b34801561019657600080fd5b506101b160048036038101906101ac9190610b46565b610411565b005b3480156101bf57600080fd5b506101da60048036038101906101d59190610b46565b610560565b6040516101e79190610d6a565b60405180910390f35b3480156101fc57600080fd5b5061021760048036038101906102129190610c29565b610614565b005b610221610676565b005b34801561022f57600080fd5b5061024a60048036038101906102459190610b73565b61090d565b005b34801561025857600080fd5b50610261610a5c565b60405161026e9190610d2d565b60405180910390f35b60008054906101000a900473ffffffffffffffffffffffffffffffffffffffff1681565b6060600360009054906101000a900473ffffffffffffffffffffffffffffffffffffffff1673ffffffffffffffffffffffffffffffffffffffff166395d89b416040518163ffffffff1660e01b815260040160006040518083038186803b15801561030557600080fd5b505afa158015610319573d6000803e3d6000fd5b505050506040513d6000823e3d601f19601f820116820180604052508101906103429190610be0565b905090565b6060600360009054906101000a900473ffffffffffffffffffffffffffffffffffffffff1673ffffffffffffffffffffffffffffffffffffffff166306fdde036040518163ffffffff1660e01b815260040160006040518083038186803b1580156103b157600080fd5b505afa1580156103c5573d6000803e3d6000fd5b505050506040513d6000823e3d601f19601f820116820180604052508101906103ee9190610be0565b905090565b60016020528060005260406000206000915090505481565b60025481565b60008054906101000a900473ffffffffffffffffffffffffffffffffffffffff1673ffffffffffffffffffffffffffffffffffffffff163373ffffffffffffffffffffffffffffffffffffffff161461046957600080fd5b600073ffffffffffffffffffffffffffffffffffffffff168173ffffffffffffffffffffffffffffffffffffffff1614156104a357600080fd5b806000806101000a81548173ffffffffffffffffffffffffffffffffffffffff021916908373ffffffffffffffffffffffffffffffffffffffff1602179055508073ffffffffffffffffffffffffffffffffffffffff1660008054906101000a900473ffffffffffffffffffffffffffffffffffffffff1673ffffffffffffffffffffffffffffffffffffffff167f023207229a6ca0b1eeb0b7f052964b015cfc74d7e1c8cc8877ffa930f4fb6ba760405160405180910390a350565b6000600360009054906101000a900473ffffffffffffffffffffffffffffffffffffffff1673ffffffffffffffffffffffffffffffffffffffff166370a08231836040518263ffffffff1660e01b81526004016105bd9190610ce9565b60206040518083038186803b1580156105d557600080fd5b505afa1580156105e9573d6000803e3d6000fd5b505050506040513d601f19601f8201168201806040525081019061060d9190610c56565b9050919050565b60008054906101000a900473ffffffffffffffffffffffffffffffffffffffff1673ffffffffffffffffffffffffffffffffffffffff163373ffffffffffffffffffffffffffffffffffffffff161461066c57600080fd5b8060028190555050565b600073ffffffffffffffffffffffffffffffffffffffff163373ffffffffffffffffffffffffffffffffffffffff1614156106b057600080fd5b6000600254346106c09190610e76565b905080600360009054906101000a900473ffffffffffffffffffffffffffffffffffffffff1673ffffffffffffffffffffffffffffffffffffffff166370a08231306040518263ffffffff1660e01b815260040161071e9190610ce9565b60206040518083038186803b15801561073657600080fd5b505afa15801561074a573d6000803e3d6000fd5b505050506040513d601f19601f8201168201806040525081019061076e9190610c56565b101561077957600080fd5b34600160003373ffffffffffffffffffffffffffffffffffffffff1673ffffffffffffffffffffffffffffffffffffffff16815260200190815260200160002060008282546107c89190610e20565b92505081905550600360009054906101000a900473ffffffffffffffffffffffffffffffffffffffff1673ffffffffffffffffffffffffffffffffffffffff1663a9059cbb33836040518363ffffffff1660e01b815260040161082c929190610d04565b602060405180830381600087803b15801561084657600080fd5b505af115801561085a573d6000803e3d6000fd5b505050506040513d601f19601f8201168201806040525081019061087e9190610bb3565b50600360009054906101000a900473ffffffffffffffffffffffffffffffffffffffff1673ffffffffffffffffffffffffffffffffffffffff163373ffffffffffffffffffffffffffffffffffffffff167f8daf503382665d950e449b86172be5222275c90f4ddf69c29fdaa8237a562a6d83600254604051610902929190610d85565b60405180910390a350565b60008054906101000a900473ffffffffffffffffffffffffffffffffffffffff1673ffffffffffffffffffffffffffffffffffffffff163373ffffffffffffffffffffffffffffffffffffffff161461096557600080fd5b8047101561097257600080fd5b600073ffffffffffffffffffffffffffffffffffffffff168273ffffffffffffffffffffffffffffffffffffffff1614156109ac57600080fd5b8173ffffffffffffffffffffffffffffffffffffffff166108fc829081150290604051600060405180830381858888f193505050501580156109f2573d6000803e3d6000fd5b508173ffffffffffffffffffffffffffffffffffffffff163073ffffffffffffffffffffffffffffffffffffffff167f9b1bfa7fa9ee420a16e124f794c35ac9f90472acc99140eb2f6447c714cad8eb83604051610a509190610d6a565b60405180910390a35050565b600360009054906101000a900473ffffffffffffffffffffffffffffffffffffffff1681565b6000610a95610a9084610dd3565b610dae565b905082815260208101848484011115610ab157610ab0611015565b5b610abc848285610f4e565b509392505050565b600081359050610ad381611035565b92915050565b600081519050610ae88161104c565b92915050565b600082601f830112610b0357610b02611010565b5b8151610b13848260208601610a82565b91505092915050565b600081359050610b2b81611063565b92915050565b600081519050610b4081611063565b92915050565b600060208284031215610b5c57610b5b61101f565b5b6000610b6a84828501610ac4565b91505092915050565b60008060408385031215610b8a57610b8961101f565b5b6000610b9885828601610ac4565b9250506020610ba985828601610b1c565b9150509250929050565b600060208284031215610bc957610bc861101f565b5b6000610bd784828501610ad9565b91505092915050565b600060208284031215610bf657610bf561101f565b5b600082015167ffffffffffffffff811115610c1457610c1361101a565b5b610c2084828501610aee565b91505092915050565b600060208284031215610c3f57610c3e61101f565b5b6000610c4d84828501610b1c565b91505092915050565b600060208284031215610c6c57610c6b61101f565b5b6000610c7a84828501610b31565b91505092915050565b610c8c81610ed0565b82525050565b610c9b81610f18565b82525050565b6000610cac82610e04565b610cb68185610e0f565b9350610cc6818560208601610f4e565b610ccf81611024565b840191505092915050565b610ce381610f0e565b82525050565b6000602082019050610cfe6000830184610c83565b92915050565b6000604082019050610d196000830185610c83565b610d266020830184610cda565b9392505050565b6000602082019050610d426000830184610c92565b92915050565b60006020820190508181036000830152610d628184610ca1565b905092915050565b6000602082019050610d7f6000830184610cda565b92915050565b6000604082019050610d9a6000830185610cda565b610da76020830184610cda565b9392505050565b6000610db8610dc9565b9050610dc48282610f81565b919050565b6000604051905090565b600067ffffffffffffffff821115610dee57610ded610fe1565b5b610df782611024565b9050602081019050919050565b600081519050919050565b600082825260208201905092915050565b6000610e2b82610f0e565b9150610e3683610f0e565b9250827fffffffffffffffffffffffffffffffffffffffffffffffffffffffffffffffff03821115610e6b57610e6a610fb2565b5b828201905092915050565b6000610e8182610f0e565b9150610e8c83610f0e565b9250817fffffffffffffffffffffffffffffffffffffffffffffffffffffffffffffffff0483118215151615610ec557610ec4610fb2565b5b828202905092915050565b6000610edb82610eee565b9050919050565b60008115159050919050565b600073ffffffffffffffffffffffffffffffffffffffff82169050919050565b6000819050919050565b6000610f2382610f2a565b9050919050565b6000610f3582610f3c565b9050919050565b6000610f4782610eee565b9050919050565b60005b83811015610f6c578082015181840152602081019050610f51565b83811115610f7b576000848401525b50505050565b610f8a82611024565b810181811067ffffffffffffffff82111715610fa957610fa8610fe1565b5b80604052505050565b7f4e487b7100000000000000000000000000000000000000000000000000000000600052601160045260246000fd5b7f4e487b7100000000000000000000000000000000000000000000000000000000600052604160045260246000fd5b600080fd5b600080fd5b600080fd5b600080fd5b6000601f19601f8301169050919050565b61103e81610ed0565b811461104957600080fd5b50565b61105581610ee2565b811461106057600080fd5b50565b61106c81610f0e565b811461107757600080fd5b5056fea2646970667358221220659838d7f8c4b73cc9c30a49b4b33b80a88561d729c4af07018343d070bc02bd64736f6c63430008070033",
  "immutableReferences": {},
  "source": "// SPDX-License-Identifier: MIT\r\npragma solidity ^0.8.6;\r\nimport './Token.sol';\r\n\r\ncontract Bank {\r\n\r\n    address public minter;\r\n    mapping(address => uint) public balances;\r\n    uint public rate;\r\n\r\n    Token public token;\r\n \r\n    modifier onlyMinter(){\r\n        require(msg.sender == minter);\r\n        _;\r\n    }\r\n\r\n    event TokenPurchased(address indexed account, address indexed token, uint amount, uint rate);\r\n\r\n    event MinterHasChange(address indexed from, address indexed to);\r\n    event Withdraw(address indexed owner, address indexed to, uint amount);\r\n\r\n    constructor(Token _token){\r\n        token = _token;\r\n        minter = msg.sender;\r\n        rate = 100;\r\n    }\r\n\r\n    function setRate(uint _rate) public onlyMinter {\r\n        rate = _rate;\r\n    }\r\n\r\n    function changeMinterAddress(address _minter) public onlyMinter { \r\n        require(_minter != address(0)); \r\n        minter = _minter;\r\n        emit MinterHasChange(minter, _minter);\r\n    }\r\n\r\n    function withdraw(address _to, uint amount) public onlyMinter {\r\n        require(address(this).balance >= amount);\r\n        require(_to != address(0));\r\n        payable(_to).transfer(amount);\r\n        emit Withdraw(address(this), _to, amount);\r\n    }\r\n\r\n    function buyTokens() public payable {\r\n        require(msg.sender != address(0));\r\n\r\n        // 1 ether = 100 tokens\r\n\r\n        uint tokenAmount = msg.value * rate;\r\n\r\n        require(token.balanceOf(address(this)) >= tokenAmount);\r\n\r\n        balances[msg.sender] += msg.value;\r\n\r\n        token.transfer(msg.sender, tokenAmount);\r\n\r\n        emit TokenPurchased(msg.sender, address(token), tokenAmount, rate);\r\n\r\n    }\r\n\r\n    function balanceOfTokens(address _address) public view returns(uint) {\r\n        return token.balanceOf(_address);\r\n    }\r\n\r\n    function getName() public view returns(string memory){\r\n        return token.name();\r\n    }\r\n\r\n    function getSymbol() public view returns(string memory){\r\n        return token.symbol();\r\n    }\r\n}\r\n",
  "sourcePath": "C:\\Users\\Owner\\Desktop\\CoinPinvePhoenix-CPRF\\src\\contracts\\Bank.sol",
  "compiler": {
    "name": "solc",
    "version": "0.8.7+commit.e28d00a7.Emscripten.clang"
  },
  "schemaVersion": "3.4.2",
  "updatedAt": "2021-08-28T03:02:09.662Z",
  "devdoc": {
    "kind": "dev",
    "methods": {},
    "version": 1
  },
  "userdoc": {
    "kind": "user",
    "methods": {},
    "version": 1
  }
}