{
  "contractName": "Bank",
  "abi": [
    {
      "inputs": [
        {
          "internalType": "contract Token",
          "name": "_token",
          "type": "address"
        }
      ],
      "stateMutability": "nonpayable",
      "type": "constructor"
    },
    {
      "anonymous": false,
      "inputs": [
        {
          "indexed": true,
          "internalType": "address",
          "name": "account",
          "type": "address"
        },
        {
          "indexed": true,
          "internalType": "address",
          "name": "token",
          "type": "address"
        },
        {
          "indexed": false,
          "internalType": "uint256",
          "name": "amount",
          "type": "uint256"
        },
        {
          "indexed": false,
          "internalType": "uint256",
          "name": "rate",
          "type": "uint256"
        }
      ],
      "name": "TokenPurchased",
      "type": "event"
    },
    {
      "inputs": [
        {
          "internalType": "address",
          "name": "",
          "type": "address"
        }
      ],
      "name": "balances",
      "outputs": [
        {
          "internalType": "uint256",
          "name": "",
          "type": "uint256"
        }
      ],
      "stateMutability": "view",
      "type": "function"
    },
    {
      "inputs": [],
      "name": "minter",
      "outputs": [
        {
          "internalType": "address",
          "name": "",
          "type": "address"
        }
      ],
      "stateMutability": "view",
      "type": "function"
    },
    {
      "inputs": [],
      "name": "rate",
      "outputs": [
        {
          "internalType": "uint256",
          "name": "",
          "type": "uint256"
        }
      ],
      "stateMutability": "view",
      "type": "function"
    },
    {
      "inputs": [],
      "name": "token",
      "outputs": [
        {
          "internalType": "contract Token",
          "name": "",
          "type": "address"
        }
      ],
      "stateMutability": "view",
      "type": "function"
    },
    {
      "inputs": [
        {
          "internalType": "uint256",
          "name": "_rate",
          "type": "uint256"
        }
      ],
      "name": "setRate",
      "outputs": [],
      "stateMutability": "nonpayable",
      "type": "function"
    },
    {
      "inputs": [],
      "name": "buyTokens",
      "outputs": [],
      "stateMutability": "payable",
      "type": "function"
    },
    {
      "inputs": [
        {
          "internalType": "address",
          "name": "_address",
          "type": "address"
        }
      ],
      "name": "balanceOfTokens",
      "outputs": [
        {
          "internalType": "uint256",
          "name": "",
          "type": "uint256"
        }
      ],
      "stateMutability": "view",
      "type": "function"
    },
    {
      "inputs": [],
      "name": "getName",
      "outputs": [
        {
          "internalType": "string",
          "name": "",
          "type": "string"
        }
      ],
      "stateMutability": "view",
      "type": "function"
    },
    {
      "inputs": [],
      "name": "getSymbol",
      "outputs": [
        {
          "internalType": "string",
          "name": "",
          "type": "string"
        }
      ],
      "stateMutability": "view",
      "type": "function"
    }
  ],
  "bytecode": "0x608060405234801561001057600080fd5b5060405162000edf38038062000edf833981810160405281019061003491906100d8565b80600360006101000a81548173ffffffffffffffffffffffffffffffffffffffff021916908373ffffffffffffffffffffffffffffffffffffffff160217905550336000806101000a81548173ffffffffffffffffffffffffffffffffffffffff021916908373ffffffffffffffffffffffffffffffffffffffff160217905550606460028190555050610165565b6000815190506100d28161014e565b92915050565b6000602082840312156100ee576100ed610149565b5b60006100fc848285016100c3565b91505092915050565b600061011082610129565b9050919050565b600061012282610105565b9050919050565b600073ffffffffffffffffffffffffffffffffffffffff82169050919050565b600080fd5b61015781610117565b811461016257600080fd5b50565b610d6a80620001756000396000f3fe6080604052600436106100865760003560e01c80632c4e722e116100595780632c4e722e146101495780632ff57da81461017457806334fcf437146101b1578063d0febe4c146101da578063fc0c546a146101e457610086565b8063075461721461008b57806315070401146100b657806317d7de7c146100e157806327e235e31461010c575b600080fd5b34801561009757600080fd5b506100a061020f565b6040516100ad91906109a3565b60405180910390f35b3480156100c257600080fd5b506100cb610233565b6040516100d89190610a02565b60405180910390f35b3480156100ed57600080fd5b506100f66102df565b6040516101039190610a02565b60405180910390f35b34801561011857600080fd5b50610133600480360381019061012e9190610840565b61038b565b6040516101409190610a24565b60405180910390f35b34801561015557600080fd5b5061015e6103a3565b60405161016b9190610a24565b60405180910390f35b34801561018057600080fd5b5061019b60048036038101906101969190610840565b6103a9565b6040516101a89190610a24565b60405180910390f35b3480156101bd57600080fd5b506101d860048036038101906101d391906108e3565b61045d565b005b6101e26104bf565b005b3480156101f057600080fd5b506101f9610756565b60405161020691906109e7565b60405180910390f35b60008054906101000a900473ffffffffffffffffffffffffffffffffffffffff1681565b6060600360009054906101000a900473ffffffffffffffffffffffffffffffffffffffff1673ffffffffffffffffffffffffffffffffffffffff166395d89b416040518163ffffffff1660e01b815260040160006040518083038186803b15801561029d57600080fd5b505afa1580156102b1573d6000803e3d6000fd5b505050506040513d6000823e3d601f19601f820116820180604052508101906102da919061089a565b905090565b6060600360009054906101000a900473ffffffffffffffffffffffffffffffffffffffff1673ffffffffffffffffffffffffffffffffffffffff166306fdde036040518163ffffffff1660e01b815260040160006040518083038186803b15801561034957600080fd5b505afa15801561035d573d6000803e3d6000fd5b505050506040513d6000823e3d601f19601f82011682018060405250810190610386919061089a565b905090565b60016020528060005260406000206000915090505481565b60025481565b6000600360009054906101000a900473ffffffffffffffffffffffffffffffffffffffff1673ffffffffffffffffffffffffffffffffffffffff166370a08231836040518263ffffffff1660e01b815260040161040691906109a3565b60206040518083038186803b15801561041e57600080fd5b505afa158015610432573d6000803e3d6000fd5b505050506040513d601f19601f820116820180604052508101906104569190610910565b9050919050565b60008054906101000a900473ffffffffffffffffffffffffffffffffffffffff1673ffffffffffffffffffffffffffffffffffffffff163373ffffffffffffffffffffffffffffffffffffffff16146104b557600080fd5b8060028190555050565b600073ffffffffffffffffffffffffffffffffffffffff163373ffffffffffffffffffffffffffffffffffffffff1614156104f957600080fd5b6000600254346105099190610b30565b905080600360009054906101000a900473ffffffffffffffffffffffffffffffffffffffff1673ffffffffffffffffffffffffffffffffffffffff166370a08231306040518263ffffffff1660e01b815260040161056791906109a3565b60206040518083038186803b15801561057f57600080fd5b505afa158015610593573d6000803e3d6000fd5b505050506040513d601f19601f820116820180604052508101906105b79190610910565b10156105c257600080fd5b34600160003373ffffffffffffffffffffffffffffffffffffffff1673ffffffffffffffffffffffffffffffffffffffff16815260200190815260200160002060008282546106119190610ada565b92505081905550600360009054906101000a900473ffffffffffffffffffffffffffffffffffffffff1673ffffffffffffffffffffffffffffffffffffffff1663a9059cbb33836040518363ffffffff1660e01b81526004016106759291906109be565b602060405180830381600087803b15801561068f57600080fd5b505af11580156106a3573d6000803e3d6000fd5b505050506040513d601f19601f820116820180604052508101906106c7919061086d565b50600360009054906101000a900473ffffffffffffffffffffffffffffffffffffffff1673ffffffffffffffffffffffffffffffffffffffff163373ffffffffffffffffffffffffffffffffffffffff167f8daf503382665d950e449b86172be5222275c90f4ddf69c29fdaa8237a562a6d8360025460405161074b929190610a3f565b60405180910390a350565b600360009054906101000a900473ffffffffffffffffffffffffffffffffffffffff1681565b600061078f61078a84610a8d565b610a68565b9050828152602081018484840111156107ab576107aa610ccf565b5b6107b6848285610c08565b509392505050565b6000813590506107cd81610cef565b92915050565b6000815190506107e281610d06565b92915050565b600082601f8301126107fd576107fc610cca565b5b815161080d84826020860161077c565b91505092915050565b60008135905061082581610d1d565b92915050565b60008151905061083a81610d1d565b92915050565b60006020828403121561085657610855610cd9565b5b6000610864848285016107be565b91505092915050565b60006020828403121561088357610882610cd9565b5b6000610891848285016107d3565b91505092915050565b6000602082840312156108b0576108af610cd9565b5b600082015167ffffffffffffffff8111156108ce576108cd610cd4565b5b6108da848285016107e8565b91505092915050565b6000602082840312156108f9576108f8610cd9565b5b600061090784828501610816565b91505092915050565b60006020828403121561092657610925610cd9565b5b60006109348482850161082b565b91505092915050565b61094681610b8a565b82525050565b61095581610bd2565b82525050565b600061096682610abe565b6109708185610ac9565b9350610980818560208601610c08565b61098981610cde565b840191505092915050565b61099d81610bc8565b82525050565b60006020820190506109b8600083018461093d565b92915050565b60006040820190506109d3600083018561093d565b6109e06020830184610994565b9392505050565b60006020820190506109fc600083018461094c565b92915050565b60006020820190508181036000830152610a1c818461095b565b905092915050565b6000602082019050610a396000830184610994565b92915050565b6000604082019050610a546000830185610994565b610a616020830184610994565b9392505050565b6000610a72610a83565b9050610a7e8282610c3b565b919050565b6000604051905090565b600067ffffffffffffffff821115610aa857610aa7610c9b565b5b610ab182610cde565b9050602081019050919050565b600081519050919050565b600082825260208201905092915050565b6000610ae582610bc8565b9150610af083610bc8565b9250827fffffffffffffffffffffffffffffffffffffffffffffffffffffffffffffffff03821115610b2557610b24610c6c565b5b828201905092915050565b6000610b3b82610bc8565b9150610b4683610bc8565b9250817fffffffffffffffffffffffffffffffffffffffffffffffffffffffffffffffff0483118215151615610b7f57610b7e610c6c565b5b828202905092915050565b6000610b9582610ba8565b9050919050565b60008115159050919050565b600073ffffffffffffffffffffffffffffffffffffffff82169050919050565b6000819050919050565b6000610bdd82610be4565b9050919050565b6000610bef82610bf6565b9050919050565b6000610c0182610ba8565b9050919050565b60005b83811015610c26578082015181840152602081019050610c0b565b83811115610c35576000848401525b50505050565b610c4482610cde565b810181811067ffffffffffffffff82111715610c6357610c62610c9b565b5b80604052505050565b7f4e487b7100000000000000000000000000000000000000000000000000000000600052601160045260246000fd5b7f4e487b7100000000000000000000000000000000000000000000000000000000600052604160045260246000fd5b600080fd5b600080fd5b600080fd5b600080fd5b6000601f19601f8301169050919050565b610cf881610b8a565b8114610d0357600080fd5b50565b610d0f81610b9c565b8114610d1a57600080fd5b50565b610d2681610bc8565b8114610d3157600080fd5b5056fea264697066735822122054ba5b9bef78c017bff55eb71735ac9e704106d9ca54c12b922f6bbad92e3fff64736f6c63430008070033",
  "immutableReferences": {},
  "source": "// SPDX-License-Identifier: MIT\r\npragma solidity ^0.8.6;\r\nimport './Token.sol';\r\n\r\ncontract Bank {\r\n\r\n    address public minter;\r\n    mapping(address => uint) public balances;\r\n    uint public rate;\r\n\r\n    Token public token;\r\n\r\n    event TokenPurchased(address indexed account, address indexed token, uint amount, uint rate);\r\n\r\n    modifier onlyMinter(){\r\n        require(msg.sender == minter);\r\n        _;\r\n    }\r\n\r\n    constructor(Token _token){\r\n        token = _token;\r\n        minter = msg.sender;\r\n        rate = 100;\r\n    }\r\n\r\n    function setRate(uint _rate) public onlyMinter {\r\n        rate = _rate;\r\n    }\r\n\r\n    function buyTokens() public payable {\r\n        require(msg.sender != address(0));\r\n\r\n        // 1 ether = 100 tokens\r\n\r\n        uint tokenAmount = msg.value * rate;\r\n\r\n        require(token.balanceOf(address(this)) >= tokenAmount);\r\n\r\n        balances[msg.sender] += msg.value;\r\n\r\n        token.transfer(msg.sender, tokenAmount);\r\n\r\n        emit TokenPurchased(msg.sender, address(token), tokenAmount, rate);\r\n\r\n    }\r\n\r\n    function balanceOfTokens(address _address) public view returns(uint) {\r\n        return token.balanceOf(_address);\r\n    }\r\n\r\n    function getName() public view returns(string memory){\r\n        return token.name();\r\n    }\r\n\r\n    function getSymbol() public view returns(string memory){\r\n        return token.symbol();\r\n    }\r\n}\r\n",
  "sourcePath": "C:\\Users\\Owner\\Desktop\\CoinPinvePhoenix-CPRF\\src\\contracts\\Bank.sol",
  "compiler": {
    "name": "solc",
    "version": "0.8.7+commit.e28d00a7.Emscripten.clang"
  },
  "schemaVersion": "3.4.2",
  "updatedAt": "2021-08-26T13:05:35.113Z",
  "devdoc": {
    "kind": "dev",
    "methods": {},
    "version": 1
  },
  "userdoc": {
    "kind": "user",
    "methods": {},
    "version": 1
  }
}