{
  "contractName": "Token",
  "abi": [
    {
      "inputs": [],
      "stateMutability": "nonpayable",
      "type": "constructor"
    },
    {
      "anonymous": false,
      "inputs": [
        {
          "indexed": true,
          "internalType": "address",
          "name": "owner",
          "type": "address"
        },
        {
          "indexed": true,
          "internalType": "address",
          "name": "spender",
          "type": "address"
        },
        {
          "indexed": false,
          "internalType": "uint256",
          "name": "value",
          "type": "uint256"
        }
      ],
      "name": "Approval",
      "type": "event"
    },
    {
      "anonymous": false,
      "inputs": [
        {
          "indexed": true,
          "internalType": "address",
          "name": "from",
          "type": "address"
        },
        {
          "indexed": true,
          "internalType": "address",
          "name": "to",
          "type": "address"
        }
      ],
      "name": "MinterHasChange",
      "type": "event"
    },
    {
      "anonymous": false,
      "inputs": [
        {
          "indexed": true,
          "internalType": "address",
          "name": "from",
          "type": "address"
        },
        {
          "indexed": true,
          "internalType": "address",
          "name": "to",
          "type": "address"
        },
        {
          "indexed": false,
          "internalType": "uint256",
          "name": "value",
          "type": "uint256"
        }
      ],
      "name": "Transfer",
      "type": "event"
    },
    {
      "inputs": [],
      "name": "_decimals",
      "outputs": [
        {
          "internalType": "uint256",
          "name": "",
          "type": "uint256"
        }
      ],
      "stateMutability": "view",
      "type": "function",
      "constant": true
    },
    {
      "inputs": [],
      "name": "_totalSupply",
      "outputs": [
        {
          "internalType": "uint256",
          "name": "",
          "type": "uint256"
        }
      ],
      "stateMutability": "view",
      "type": "function",
      "constant": true
    },
    {
      "inputs": [
        {
          "internalType": "address",
          "name": "owner",
          "type": "address"
        },
        {
          "internalType": "address",
          "name": "spender",
          "type": "address"
        }
      ],
      "name": "allowance",
      "outputs": [
        {
          "internalType": "uint256",
          "name": "",
          "type": "uint256"
        }
      ],
      "stateMutability": "view",
      "type": "function",
      "constant": true
    },
    {
      "inputs": [
        {
          "internalType": "address",
          "name": "spender",
          "type": "address"
        },
        {
          "internalType": "uint256",
          "name": "amount",
          "type": "uint256"
        }
      ],
      "name": "approve",
      "outputs": [
        {
          "internalType": "bool",
          "name": "",
          "type": "bool"
        }
      ],
      "stateMutability": "nonpayable",
      "type": "function"
    },
    {
      "inputs": [
        {
          "internalType": "address",
          "name": "account",
          "type": "address"
        }
      ],
      "name": "balanceOf",
      "outputs": [
        {
          "internalType": "uint256",
          "name": "",
          "type": "uint256"
        }
      ],
      "stateMutability": "view",
      "type": "function",
      "constant": true
    },
    {
      "inputs": [],
      "name": "decimals",
      "outputs": [
        {
          "internalType": "uint8",
          "name": "",
          "type": "uint8"
        }
      ],
      "stateMutability": "view",
      "type": "function",
      "constant": true
    },
    {
      "inputs": [
        {
          "internalType": "address",
          "name": "spender",
          "type": "address"
        },
        {
          "internalType": "uint256",
          "name": "subtractedValue",
          "type": "uint256"
        }
      ],
      "name": "decreaseAllowance",
      "outputs": [
        {
          "internalType": "bool",
          "name": "",
          "type": "bool"
        }
      ],
      "stateMutability": "nonpayable",
      "type": "function"
    },
    {
      "inputs": [
        {
          "internalType": "address",
          "name": "spender",
          "type": "address"
        },
        {
          "internalType": "uint256",
          "name": "addedValue",
          "type": "uint256"
        }
      ],
      "name": "increaseAllowance",
      "outputs": [
        {
          "internalType": "bool",
          "name": "",
          "type": "bool"
        }
      ],
      "stateMutability": "nonpayable",
      "type": "function"
    },
    {
      "inputs": [],
      "name": "minter",
      "outputs": [
        {
          "internalType": "address",
          "name": "",
          "type": "address"
        }
      ],
      "stateMutability": "view",
      "type": "function",
      "constant": true
    },
    {
      "inputs": [],
      "name": "name",
      "outputs": [
        {
          "internalType": "string",
          "name": "",
          "type": "string"
        }
      ],
      "stateMutability": "view",
      "type": "function",
      "constant": true
    },
    {
      "inputs": [],
      "name": "symbol",
      "outputs": [
        {
          "internalType": "string",
          "name": "",
          "type": "string"
        }
      ],
      "stateMutability": "view",
      "type": "function",
      "constant": true
    },
    {
      "inputs": [],
      "name": "totalSupply",
      "outputs": [
        {
          "internalType": "uint256",
          "name": "",
          "type": "uint256"
        }
      ],
      "stateMutability": "view",
      "type": "function",
      "constant": true
    },
    {
      "inputs": [
        {
          "internalType": "address",
          "name": "recipient",
          "type": "address"
        },
        {
          "internalType": "uint256",
          "name": "amount",
          "type": "uint256"
        }
      ],
      "name": "transfer",
      "outputs": [
        {
          "internalType": "bool",
          "name": "",
          "type": "bool"
        }
      ],
      "stateMutability": "nonpayable",
      "type": "function"
    },
    {
      "inputs": [
        {
          "internalType": "address",
          "name": "sender",
          "type": "address"
        },
        {
          "internalType": "address",
          "name": "recipient",
          "type": "address"
        },
        {
          "internalType": "uint256",
          "name": "amount",
          "type": "uint256"
        }
      ],
      "name": "transferFrom",
      "outputs": [
        {
          "internalType": "bool",
          "name": "",
          "type": "bool"
        }
      ],
      "stateMutability": "nonpayable",
      "type": "function"
    },
    {
      "inputs": [
        {
          "internalType": "address",
          "name": "_minter",
          "type": "address"
        }
      ],
      "name": "changeMinterAddress",
      "outputs": [],
      "stateMutability": "nonpayable",
      "type": "function"
    },
    {
      "inputs": [
        {
          "internalType": "address",
          "name": "receiver",
          "type": "address"
        },
        {
          "internalType": "uint256",
          "name": "amount",
          "type": "uint256"
        }
      ],
      "name": "mint",
      "outputs": [],
      "stateMutability": "nonpayable",
      "type": "function"
    }
  ],
  "bytecode": "0x60806040526012600655600654600a6200001a91906200051b565b633b9aca006200002b919062000658565b6007553480156200003b57600080fd5b506040518060400160405280601181526020017f436f696e50696e76657250686f656e69780000000000000000000000000000008152506040518060400160405280600481526020017f43505250000000000000000000000000000000000000000000000000000000008152508160039080519060200190620000c09291906200032b565b508060049080519060200190620000d99291906200032b565b50505033600560006101000a81548173ffffffffffffffffffffffffffffffffffffffff021916908373ffffffffffffffffffffffffffffffffffffffff16021790555062000131336007546200013760201b60201c565b6200078d565b600560009054906101000a900473ffffffffffffffffffffffffffffffffffffffff1673ffffffffffffffffffffffffffffffffffffffff163373ffffffffffffffffffffffffffffffffffffffff16146200019257600080fd5b620001a48282620001a860201b60201c565b5050565b600073ffffffffffffffffffffffffffffffffffffffff168273ffffffffffffffffffffffffffffffffffffffff1614156200021b576040517f08c379a0000000000000000000000000000000000000000000000000000000008152600401620002129062000413565b60405180910390fd5b6200022f600083836200032160201b60201c565b806002600082825462000243919062000463565b92505081905550806000808473ffffffffffffffffffffffffffffffffffffffff1673ffffffffffffffffffffffffffffffffffffffff16815260200190815260200160002060008282546200029a919062000463565b925050819055508173ffffffffffffffffffffffffffffffffffffffff16600073ffffffffffffffffffffffffffffffffffffffff167fddf252ad1be2c89b69c2b068fc378daa952ba7f163c4a11628f55a4df523b3ef8360405162000301919062000435565b60405180910390a36200031d600083836200032660201b60201c565b5050565b505050565b505050565b8280546200033990620006c3565b90600052602060002090601f0160209004810192826200035d5760008555620003a9565b82601f106200037857805160ff1916838001178555620003a9565b82800160010185558215620003a9579182015b82811115620003a85782518255916020019190600101906200038b565b5b509050620003b89190620003bc565b5090565b5b80821115620003d7576000816000905550600101620003bd565b5090565b6000620003ea601f8362000452565b9150620003f78262000764565b602082019050919050565b6200040d81620006b9565b82525050565b600060208201905081810360008301526200042e81620003db565b9050919050565b60006020820190506200044c600083018462000402565b92915050565b600082825260208201905092915050565b60006200047082620006b9565b91506200047d83620006b9565b9250827fffffffffffffffffffffffffffffffffffffffffffffffffffffffffffffffff03821115620004b557620004b4620006f9565b5b828201905092915050565b6000808291508390505b60018511156200051257808604811115620004ea57620004e9620006f9565b5b6001851615620004fa5780820291505b80810290506200050a8562000757565b9450620004ca565b94509492505050565b60006200052882620006b9565b91506200053583620006b9565b9250620005647fffffffffffffffffffffffffffffffffffffffffffffffffffffffffffffffff84846200056c565b905092915050565b6000826200057e576001905062000651565b816200058e576000905062000651565b8160018114620005a75760028114620005b257620005e8565b600191505062000651565b60ff841115620005c757620005c6620006f9565b5b8360020a915084821115620005e157620005e0620006f9565b5b5062000651565b5060208310610133831016604e8410600b8410161715620006225782820a9050838111156200061c576200061b620006f9565b5b62000651565b620006318484846001620004c0565b925090508184048111156200064b576200064a620006f9565b5b81810290505b9392505050565b60006200066582620006b9565b91506200067283620006b9565b9250817fffffffffffffffffffffffffffffffffffffffffffffffffffffffffffffffff0483118215151615620006ae57620006ad620006f9565b5b828202905092915050565b6000819050919050565b60006002820490506001821680620006dc57607f821691505b60208210811415620006f357620006f262000728565b5b50919050565b7f4e487b7100000000000000000000000000000000000000000000000000000000600052601160045260246000fd5b7f4e487b7100000000000000000000000000000000000000000000000000000000600052602260045260246000fd5b60008160011c9050919050565b7f45524332303a206d696e7420746f20746865207a65726f206164647265737300600082015250565b611877806200079d6000396000f3fe608060405234801561001057600080fd5b50600436106101005760003560e01c8063395093511161009757806395d89b411161006657806395d89b41146102b1578063a457c2d7146102cf578063a9059cbb146102ff578063dd62ed3e1461032f57610100565b806339509351146102175780633eaaf86b1461024757806340c10f191461026557806370a082311461028157610100565b806323b872dd116100d357806323b872dd1461018f5780632c8615b1146101bf578063313ce567146101db57806332424aa3146101f957610100565b806306fdde03146101055780630754617214610123578063095ea7b31461014157806318160ddd14610171575b600080fd5b61010d61035f565b60405161011a91906112c9565b60405180910390f35b61012b6103f1565b6040516101389190611293565b60405180910390f35b61015b600480360381019061015691906110c6565b610417565b60405161016891906112ae565b60405180910390f35b610179610435565b60405161018691906113eb565b60405180910390f35b6101a960048036038101906101a49190611073565b61043f565b6040516101b691906112ae565b60405180910390f35b6101d960048036038101906101d49190611006565b610537565b005b6101e361068b565b6040516101f09190611406565b60405180910390f35b610201610694565b60405161020e91906113eb565b60405180910390f35b610231600480360381019061022c91906110c6565b61069a565b60405161023e91906112ae565b60405180910390f35b61024f610746565b60405161025c91906113eb565b60405180910390f35b61027f600480360381019061027a91906110c6565b61074c565b005b61029b60048036038101906102969190611006565b6107b4565b6040516102a891906113eb565b60405180910390f35b6102b96107fc565b6040516102c691906112c9565b60405180910390f35b6102e960048036038101906102e491906110c6565b61088e565b6040516102f691906112ae565b60405180910390f35b610319600480360381019061031491906110c6565b610979565b60405161032691906112ae565b60405180910390f35b61034960048036038101906103449190611033565b610997565b60405161035691906113eb565b60405180910390f35b60606003805461036e9061151b565b80601f016020809104026020016040519081016040528092919081815260200182805461039a9061151b565b80156103e75780601f106103bc576101008083540402835291602001916103e7565b820191906000526020600020905b8154815290600101906020018083116103ca57829003601f168201915b5050505050905090565b600560009054906101000a900473ffffffffffffffffffffffffffffffffffffffff1681565b600061042b610424610a1e565b8484610a26565b6001905092915050565b6000600254905090565b600061044c848484610bf1565b6000600160008673ffffffffffffffffffffffffffffffffffffffff1673ffffffffffffffffffffffffffffffffffffffff1681526020019081526020016000206000610497610a1e565b73ffffffffffffffffffffffffffffffffffffffff1673ffffffffffffffffffffffffffffffffffffffff16815260200190815260200160002054905082811015610517576040517f08c379a000000000000000000000000000000000000000000000000000000000815260040161050e9061134b565b60405180910390fd5b61052b85610523610a1e565b858403610a26565b60019150509392505050565b600560009054906101000a900473ffffffffffffffffffffffffffffffffffffffff1673ffffffffffffffffffffffffffffffffffffffff163373ffffffffffffffffffffffffffffffffffffffff161461059157600080fd5b600073ffffffffffffffffffffffffffffffffffffffff168173ffffffffffffffffffffffffffffffffffffffff1614156105cb57600080fd5b80600560006101000a81548173ffffffffffffffffffffffffffffffffffffffff021916908373ffffffffffffffffffffffffffffffffffffffff1602179055508073ffffffffffffffffffffffffffffffffffffffff16600560009054906101000a900473ffffffffffffffffffffffffffffffffffffffff1673ffffffffffffffffffffffffffffffffffffffff167f023207229a6ca0b1eeb0b7f052964b015cfc74d7e1c8cc8877ffa930f4fb6ba760405160405180910390a350565b60006012905090565b60065481565b600061073c6106a7610a1e565b8484600160006106b5610a1e565b73ffffffffffffffffffffffffffffffffffffffff1673ffffffffffffffffffffffffffffffffffffffff16815260200190815260200160002060008873ffffffffffffffffffffffffffffffffffffffff1673ffffffffffffffffffffffffffffffffffffffff16815260200190815260200160002054610737919061143d565b610a26565b6001905092915050565b60075481565b600560009054906101000a900473ffffffffffffffffffffffffffffffffffffffff1673ffffffffffffffffffffffffffffffffffffffff163373ffffffffffffffffffffffffffffffffffffffff16146107a657600080fd5b6107b08282610e72565b5050565b60008060008373ffffffffffffffffffffffffffffffffffffffff1673ffffffffffffffffffffffffffffffffffffffff168152602001908152602001600020549050919050565b60606004805461080b9061151b565b80601f01602080910402602001604051908101604052809291908181526020018280546108379061151b565b80156108845780601f1061085957610100808354040283529160200191610884565b820191906000526020600020905b81548152906001019060200180831161086757829003601f168201915b5050505050905090565b6000806001600061089d610a1e565b73ffffffffffffffffffffffffffffffffffffffff1673ffffffffffffffffffffffffffffffffffffffff16815260200190815260200160002060008573ffffffffffffffffffffffffffffffffffffffff1673ffffffffffffffffffffffffffffffffffffffff1681526020019081526020016000205490508281101561095a576040517f08c379a0000000000000000000000000000000000000000000000000000000008152600401610951906113ab565b60405180910390fd5b61096e610965610a1e565b85858403610a26565b600191505092915050565b600061098d610986610a1e565b8484610bf1565b6001905092915050565b6000600160008473ffffffffffffffffffffffffffffffffffffffff1673ffffffffffffffffffffffffffffffffffffffff16815260200190815260200160002060008373ffffffffffffffffffffffffffffffffffffffff1673ffffffffffffffffffffffffffffffffffffffff16815260200190815260200160002054905092915050565b600033905090565b600073ffffffffffffffffffffffffffffffffffffffff168373ffffffffffffffffffffffffffffffffffffffff161415610a96576040517f08c379a0000000000000000000000000000000000000000000000000000000008152600401610a8d9061138b565b60405180910390fd5b600073ffffffffffffffffffffffffffffffffffffffff168273ffffffffffffffffffffffffffffffffffffffff161415610b06576040517f08c379a0000000000000000000000000000000000000000000000000000000008152600401610afd9061130b565b60405180910390fd5b80600160008573ffffffffffffffffffffffffffffffffffffffff1673ffffffffffffffffffffffffffffffffffffffff16815260200190815260200160002060008473ffffffffffffffffffffffffffffffffffffffff1673ffffffffffffffffffffffffffffffffffffffff168152602001908152602001600020819055508173ffffffffffffffffffffffffffffffffffffffff168373ffffffffffffffffffffffffffffffffffffffff167f8c5be1e5ebec7d5bd14f71427d1e84f3dd0314c0f7b2291e5b200ac8c7c3b92583604051610be491906113eb565b60405180910390a3505050565b600073ffffffffffffffffffffffffffffffffffffffff168373ffffffffffffffffffffffffffffffffffffffff161415610c61576040517f08c379a0000000000000000000000000000000000000000000000000000000008152600401610c589061136b565b60405180910390fd5b600073ffffffffffffffffffffffffffffffffffffffff168273ffffffffffffffffffffffffffffffffffffffff161415610cd1576040517f08c379a0000000000000000000000000000000000000000000000000000000008152600401610cc8906112eb565b60405180910390fd5b610cdc838383610fd2565b60008060008573ffffffffffffffffffffffffffffffffffffffff1673ffffffffffffffffffffffffffffffffffffffff16815260200190815260200160002054905081811015610d62576040517f08c379a0000000000000000000000000000000000000000000000000000000008152600401610d599061132b565b60405180910390fd5b8181036000808673ffffffffffffffffffffffffffffffffffffffff1673ffffffffffffffffffffffffffffffffffffffff16815260200190815260200160002081905550816000808573ffffffffffffffffffffffffffffffffffffffff1673ffffffffffffffffffffffffffffffffffffffff1681526020019081526020016000206000828254610df5919061143d565b925050819055508273ffffffffffffffffffffffffffffffffffffffff168473ffffffffffffffffffffffffffffffffffffffff167fddf252ad1be2c89b69c2b068fc378daa952ba7f163c4a11628f55a4df523b3ef84604051610e5991906113eb565b60405180910390a3610e6c848484610fd7565b50505050565b600073ffffffffffffffffffffffffffffffffffffffff168273ffffffffffffffffffffffffffffffffffffffff161415610ee2576040517f08c379a0000000000000000000000000000000000000000000000000000000008152600401610ed9906113cb565b60405180910390fd5b610eee60008383610fd2565b8060026000828254610f00919061143d565b92505081905550806000808473ffffffffffffffffffffffffffffffffffffffff1673ffffffffffffffffffffffffffffffffffffffff1681526020019081526020016000206000828254610f55919061143d565b925050819055508173ffffffffffffffffffffffffffffffffffffffff16600073ffffffffffffffffffffffffffffffffffffffff167fddf252ad1be2c89b69c2b068fc378daa952ba7f163c4a11628f55a4df523b3ef83604051610fba91906113eb565b60405180910390a3610fce60008383610fd7565b5050565b505050565b505050565b600081359050610feb81611813565b92915050565b6000813590506110008161182a565b92915050565b60006020828403121561101c5761101b6115ab565b5b600061102a84828501610fdc565b91505092915050565b6000806040838503121561104a576110496115ab565b5b600061105885828601610fdc565b925050602061106985828601610fdc565b9150509250929050565b60008060006060848603121561108c5761108b6115ab565b5b600061109a86828701610fdc565b93505060206110ab86828701610fdc565b92505060406110bc86828701610ff1565b9150509250925092565b600080604083850312156110dd576110dc6115ab565b5b60006110eb85828601610fdc565b92505060206110fc85828601610ff1565b9150509250929050565b61110f81611493565b82525050565b61111e816114a5565b82525050565b600061112f82611421565b611139818561142c565b93506111498185602086016114e8565b611152816115b0565b840191505092915050565b600061116a60238361142c565b9150611175826115c1565b604082019050919050565b600061118d60228361142c565b915061119882611610565b604082019050919050565b60006111b060268361142c565b91506111bb8261165f565b604082019050919050565b60006111d360288361142c565b91506111de826116ae565b604082019050919050565b60006111f660258361142c565b9150611201826116fd565b604082019050919050565b600061121960248361142c565b91506112248261174c565b604082019050919050565b600061123c60258361142c565b91506112478261179b565b604082019050919050565b600061125f601f8361142c565b915061126a826117ea565b602082019050919050565b61127e816114d1565b82525050565b61128d816114db565b82525050565b60006020820190506112a86000830184611106565b92915050565b60006020820190506112c36000830184611115565b92915050565b600060208201905081810360008301526112e38184611124565b905092915050565b600060208201905081810360008301526113048161115d565b9050919050565b6000602082019050818103600083015261132481611180565b9050919050565b60006020820190508181036000830152611344816111a3565b9050919050565b60006020820190508181036000830152611364816111c6565b9050919050565b60006020820190508181036000830152611384816111e9565b9050919050565b600060208201905081810360008301526113a48161120c565b9050919050565b600060208201905081810360008301526113c48161122f565b9050919050565b600060208201905081810360008301526113e481611252565b9050919050565b60006020820190506114006000830184611275565b92915050565b600060208201905061141b6000830184611284565b92915050565b600081519050919050565b600082825260208201905092915050565b6000611448826114d1565b9150611453836114d1565b9250827fffffffffffffffffffffffffffffffffffffffffffffffffffffffffffffffff038211156114885761148761154d565b5b828201905092915050565b600061149e826114b1565b9050919050565b60008115159050919050565b600073ffffffffffffffffffffffffffffffffffffffff82169050919050565b6000819050919050565b600060ff82169050919050565b60005b838110156115065780820151818401526020810190506114eb565b83811115611515576000848401525b50505050565b6000600282049050600182168061153357607f821691505b602082108114156115475761154661157c565b5b50919050565b7f4e487b7100000000000000000000000000000000000000000000000000000000600052601160045260246000fd5b7f4e487b7100000000000000000000000000000000000000000000000000000000600052602260045260246000fd5b600080fd5b6000601f19601f8301169050919050565b7f45524332303a207472616e7366657220746f20746865207a65726f206164647260008201527f6573730000000000000000000000000000000000000000000000000000000000602082015250565b7f45524332303a20617070726f766520746f20746865207a65726f20616464726560008201527f7373000000000000000000000000000000000000000000000000000000000000602082015250565b7f45524332303a207472616e7366657220616d6f756e742065786365656473206260008201527f616c616e63650000000000000000000000000000000000000000000000000000602082015250565b7f45524332303a207472616e7366657220616d6f756e742065786365656473206160008201527f6c6c6f77616e6365000000000000000000000000000000000000000000000000602082015250565b7f45524332303a207472616e736665722066726f6d20746865207a65726f20616460008201527f6472657373000000000000000000000000000000000000000000000000000000602082015250565b7f45524332303a20617070726f76652066726f6d20746865207a65726f2061646460008201527f7265737300000000000000000000000000000000000000000000000000000000602082015250565b7f45524332303a2064656372656173656420616c6c6f77616e63652062656c6f7760008201527f207a65726f000000000000000000000000000000000000000000000000000000602082015250565b7f45524332303a206d696e7420746f20746865207a65726f206164647265737300600082015250565b61181c81611493565b811461182757600080fd5b50565b611833816114d1565b811461183e57600080fd5b5056fea26469706673582212201830f7d70ab3c2f418f82e304d690e6e04d4b9ce7bbbc4b69603485751e39c8564736f6c63430008070033",
  "immutableReferences": {},
  "source": "// SPDX-License-Identifier: MIT\r\npragma solidity ^0.8.6;\r\nimport '@openzeppelin/contracts/token/ERC20/ERC20.sol';\r\n\r\ncontract Token is ERC20 {\r\n\r\n    address public minter;\r\n    uint public _decimals = 18;\r\n    uint public _totalSupply = 1000000000 * 10 ** _decimals;\r\n\r\n    modifier onlyMinter(){\r\n        require(msg.sender == minter);\r\n        _;\r\n    }\r\n\r\n    event MinterHasChange(address indexed from, address indexed to);\r\n\r\n    constructor() ERC20(\"CoinPinverPhoenix\",\"CPRP\") {\r\n        minter = msg.sender;\r\n        mint(msg.sender, _totalSupply);\r\n    }\r\n\r\n    function changeMinterAddress (address _minter) public onlyMinter { \r\n        require(_minter != address(0)); \r\n        minter = _minter;\r\n        emit MinterHasChange(minter, _minter);\r\n    }\r\n\r\n    function mint(address receiver, uint amount) public onlyMinter {\r\n        _mint(receiver, amount);\r\n    }\r\n}\r\n",
  "sourcePath": "C:\\Users\\Owner\\Desktop\\CoinPinvePhoenix-CPRF\\src\\contracts\\Token.sol",
  "compiler": {
    "name": "solc",
    "version": "0.8.7+commit.e28d00a7.Emscripten.clang"
  },
  "schemaVersion": "3.4.2",
  "updatedAt": "2021-08-28T05:53:02.015Z",
  "networkType": "ethereum",
  "devdoc": {
    "kind": "dev",
    "methods": {
      "allowance(address,address)": {
        "details": "See {IERC20-allowance}."
      },
      "approve(address,uint256)": {
        "details": "See {IERC20-approve}. Requirements: - `spender` cannot be the zero address."
      },
      "balanceOf(address)": {
        "details": "See {IERC20-balanceOf}."
      },
      "decimals()": {
        "details": "Returns the number of decimals used to get its user representation. For example, if `decimals` equals `2`, a balance of `505` tokens should be displayed to a user as `5.05` (`505 / 10 ** 2`). Tokens usually opt for a value of 18, imitating the relationship between Ether and Wei. This is the value {ERC20} uses, unless this function is overridden; NOTE: This information is only used for _display_ purposes: it in no way affects any of the arithmetic of the contract, including {IERC20-balanceOf} and {IERC20-transfer}."
      },
      "decreaseAllowance(address,uint256)": {
        "details": "Atomically decreases the allowance granted to `spender` by the caller. This is an alternative to {approve} that can be used as a mitigation for problems described in {IERC20-approve}. Emits an {Approval} event indicating the updated allowance. Requirements: - `spender` cannot be the zero address. - `spender` must have allowance for the caller of at least `subtractedValue`."
      },
      "increaseAllowance(address,uint256)": {
        "details": "Atomically increases the allowance granted to `spender` by the caller. This is an alternative to {approve} that can be used as a mitigation for problems described in {IERC20-approve}. Emits an {Approval} event indicating the updated allowance. Requirements: - `spender` cannot be the zero address."
      },
      "name()": {
        "details": "Returns the name of the token."
      },
      "symbol()": {
        "details": "Returns the symbol of the token, usually a shorter version of the name."
      },
      "totalSupply()": {
        "details": "See {IERC20-totalSupply}."
      },
      "transfer(address,uint256)": {
        "details": "See {IERC20-transfer}. Requirements: - `recipient` cannot be the zero address. - the caller must have a balance of at least `amount`."
      },
      "transferFrom(address,address,uint256)": {
        "details": "See {IERC20-transferFrom}. Emits an {Approval} event indicating the updated allowance. This is not required by the EIP. See the note at the beginning of {ERC20}. Requirements: - `sender` and `recipient` cannot be the zero address. - `sender` must have a balance of at least `amount`. - the caller must have allowance for ``sender``'s tokens of at least `amount`."
      }
    },
    "version": 1
  },
  "userdoc": {
    "kind": "user",
    "methods": {},
    "version": 1
  }
}